:020000040800F2
:10000000C8BD01202503000893780008092D0008C9
:10001000057800081F200008C7BF00080000000086
:10002000000000000000000000000000CDA100085A
:100030009127000800000000F57C000811A90008C5
:100040003F0300083F0300083F03000869870008DA
:100050003F0300083F0300083F0300083F03000878
:100060003F0300083F0300083F0300083F03000868
:100070003F0300083F0300083F0300083F03000858
:100080003F0300083F0300083F0300083F03000848
:100090003F0300083F0300083F0300083F03000838
:1000A0003F0300083F0300083F0300083F03000828
:1000B0003F0300087DA900085DAA00083F0300086F
:1000C0003F0300083F0300083F0300083F03000808
:1000D0003F0300080DBC000895BC00083F03000862
:1000E0003F030008C97F00083F0300083F030008E2
:1000F0003F0300083F0300083F0300083F030008D8
:100100003F030008318900083F0300083F0300084F
:100110003F0300083F0300083F0300083F030008B7
:100120003F0300083F0300083F0300083F030008A7
:100130003F0300083F0300083F0300083F03000897
:100140003F0300083F0300083F0300083F03000887
:100150003F0300083F0300083F0300083F03000877
:100160003F0300083F0300083F0300083F03000867
:100170003F0300083F0300083F0300083F03000857
:100180003F0300083F03000800F002F800F0B2F857
:100190000AA090E8000C82448344AAF10107DA45E2
:1001A00001D100F0A7F8AFF2090EBAE80F0013F082
:1001B000010F18BFFB1A43F0010318476C18010028
:1001C0008C1801000A444FF0000C10F8013B13F0AA
:1001D000070408BF10F8014B1D1108BF10F8015BA0
:1001E000641E05D010F8016B641E01F8016BF9D193
:1001F00013F0080F1EBF10F8014BAD1C0C1B09D1EA
:100200006D1E58BF01F801CBFAD505E014F8016B5B
:1002100001F8016B6D1EF9D59142D6D370470000ED
:100220000023002400250026103A28BF78C1FBD8FF
:10023000520728BF30C148BF0B6070476E2900F0DD
:100240006084702900F0BB8166290FF01385652951
:100250000FF0108567290FF00D8561290FF00C85CF
:1002600003681B0A28BF41F08001692900F02C8136
:10027000642900F02981752900F026816F2900F09A
:100280005885782900F08781E92900F0F384E42972
:1002900000F0F084F52900F0ED84EF2900F0558599
:1002A000F82900F086810368DB0928BF41F080014E
:1002B000632900F06284732900F06784E32901F068
:1002C0006381F32901F06881002070471FB50FF0AA
:1002D000CCFC00F025FB0400002000210FF0A0F969
:1002E000401C6060002000210FF0B0F9E0601FBDED
:1002F00010B510BD01F078F91146FFF7E7FF0EF0D9
:1003000019FA01F045FA03B4FFF7F2FF03BC0BF052
:10031000B8FE000030BF72B6704762B6704780F317
:10032000088870470948804709480047FEE7FEE70C
:10033000FEE7FEE7FEE7FEE7FEE7FEE7FEE7FEE795
:1003400004480549054A064B7047000015A90008F6
:1003500089010008C8B70120C8BD0120C8B9012023
:10036000C8B901207047000010B500F0D9FA001D8F
:1003700010BD00BFADF2000010B54C1084EA53046C
:1003800004D54042C1F1000138BF491E1B4204D5CB
:100390005242C3F1000338BF5B1E00F0C5FA14F0EF
:1003A000804F04D04042C1F1000138BF491E14F013
:1003B000004F04D05242C3F1000338BF5B1E10BD92
:1003C0001CB50C46064B7B4469460090204600F065
:1003D000B2FB04460020694600F0C0FB20461CBD6D
:1003E000930700000FB4044910B503AA029800F067
:1003F000D1FB10BC5DF814FBE80000200FB41CB565
:10040000084B06AA7B4469460090059800F093FBD0
:1004100004460020694600F0A1FB20461CBC5DF8A4
:1004200014FB00005507000070B50446856900689C
:10043000C10601D5302600E02026C00707D070BDD8
:10044000D4E9012130469047206A401C20626D1E8D
:10045000F6D570BD70B5044685690078C00707D130
:1004600070BDD4E9012120209047206A401C206201
:100470006D1EF6D570BD70B50C460546012A05D037
:100480002878800600D5EA69002302E0012305E010
:100490005B1C934202D2E05C0028F9D1A869E618FF
:1004A000C01AA861286A184428622846FFF7BCFFD2
:1004B00004E0D5E9012114F8010B9047B442F8D3C8
:1004C0002846FFF7C7FF70BD2DE9F041064600241E
:1004D00010687529314616A510D000F0A7FA00283B
:1004E00002DA404213A507E031688A0701D512A558
:1004F00002E0490704D511A5012401E000F09FFAAC
:1005000000210A2206F1240709E0B0FBF2FCB0FB4F
:10051000F2F302FB1C00303078541846491C0028C6
:10052000F3D123462A463046BDE8F04100F090BAA8
:10053000000000002D0000002B0000002000000043
:10054000F0B40D460188090502D5214C7C4402E037
:100550001F4C7C440E34002100F1240608E002F018
:100560000F071209E75D42EA03721B097754491C21
:1005700052EA0307F3D102780023120704D5702D45
:1005800006D009B1022311342246F0BC00F060BA53
:1005900001231034F8E770B504460D462146106873
:1005A00000F04DFA024629462046BDE8704000237F
:1005B000C6E7D21D22F00703D3E90023C0E7036892
:1005C000126843F0200303600823C3610023B7E7E8
:1005D0001A1301002DE9F05F894604464FF0000A26
:1005E000DFF874B1FB44C0F820A02046E1688847DA
:1005F000002874D0252806D0D4E901219047206A2C
:10060000401C2062F1E700265F462046E1688847EB
:100610002028054607DB312D05D2781910F8200C6B
:1006200008B10643F1E7B00701D526F00406C4F887
:100630001CA00027C4F818A02A2D09D028460BF0CA
:1006400019FD38B304EB8708303DC8F8185019E09D
:1006500059F8041B204604EB87029161E168884742
:10066000012F054618D1E069002820DA26F020067F
:100670001DE0D8F8180000EB800005EB4000303892
:10068000C8F818002046E168884705460BF0F2FCE0
:100690000028EED1012F0AD02E2D08D12046E16886
:1006A00088477F1C0546022F46F02006C4DBA06960
:1006B000002803DA404246F00106A061F00701D0AD
:1006C00026F010066C2D0BD0682D09D04C2D39D09A
:1006D0006A2D35D0742D35D07A2D33D016E038E020
:1006E000E1682F4620468847B842054609D16C2F5D
:1006F00026D04FF48060E1680643204688470546CF
:1007000004E06C2F1AD04FF4807006430DB3A5F1AE
:100710004100192802D8203546F400664A46294689
:10072000204626604E46FFF789FD80B101280BD098
:10073000F61D26F0070000F1080956E74020E4E71F
:100740008020D8E70020D6E706F104094DE72846C7
:1007500052E7206ABDE8F09FAA12010030B50546B5
:100760000B462A4613F8014B12F8010B08B1A042C0
:10077000F8D01CB1002802D06D1CF1E7284630BD2E
:1007800010B5431C02E010F8011B71B18107FAD1CA
:100790004FF0013202C88C1A8C4314EAC211F9D00E
:1007A000C01A0A0603D0C01E10BDC01A10BD0A042C
:1007B00001D0801E10BD0902FCD0401E10BD032ACE
:1007C00040F2308010F0030C00F0158011F8013B6E
:1007D000BCF1020F624498BF11F801CB00F8013B55
:1007E00038BF11F8013BA2F1040298BF00F801CB19
:1007F00038BF00F8013B11F0030300F0B182083A62
:10080000C0F0088051F8043B083A51F804CBA0E846
:100810000810F5E7121D5CBF51F8043B40F8043B9B
:10082000AFF30080D20724BF11F8013B11F801CBD0
:1008300048BF11F8012B24BF00F8013B00F801CBA1
:1008400048BF00F8012B70474FF0000200B5134677
:1008500094469646203922BFA0E80C50A0E80C50E0
:10086000B1F12001BFF4F7AF090728BFA0E80C5091
:1008700048BF0CC05DF804EB890028BF40F8042B8A
:1008800008BF704748BF20F8022B11F0804F18BFF7
:1008900000F8012B704700004FF0013C50F8042B8A
:1008A00051F8043B9A4221D1A2EB0C03934313EA83
:1008B000CC1317D150F8042B51F8043B9A4215D1B0
:1008C000A2EB0C03934313EACC130BD150F8042B87
:1008D00051F8043B9A4209D1A2EB0C03934313EA6B
:1008E000CC13DBD04FF00000704700BFD01A01BA24
:1008F000B1FA81F101F0180122FA01F0CB40C1F107
:100900002001DBB2C0B2C01A2CFA01F3D11A914314
:1009100011EAC311E6D170477047704770477047BE
:100920000048704788B7012053EA020C00F0698044
:100930002DE9F04B4FF00006002B1FBFB3FA83F5F3
:1009400003FA05F424FA05F65E4012BF1643B2FA24
:1009500082F502FA05F4C5F120051EBF22FA05FC56
:1009600044EA0C04203556EA044C4FEA144418BFFC
:10097000641C4FF000084FF00009904271EB030C2B
:1009800039D3002919BFB1FA81F701FA07F6B0FA95
:1009900080F700FA07F6C7F120071EBF20FA07FC10
:1009A00046EA0C062037B6FBF4FCA7EB0507103F20
:1009B00007F01F0BCBF120060CFA0BFB2CFA06F606
:1009C00044BFB3460026202FA4BF5E464FF0000B65
:1009D0005BEA060C08BF4FF0010B19EB0B09ABFBF0
:1009E000027C48EB0608C01B06FB02CC0BFB03CCC9
:1009F00071EB0C01C1E70B46024641464846BDE893
:100A0000F08B13B54FF000004FF00001AFF3008002
:100A1000BDE81C40704710B500F0D8F9006810BD63
:100A200010B5044600F0D2F9046010BD09684A050B
:100A300001D540B27047C905FCD500B270470968BE
:100A40004A0501D5C0B27047C905FCD580B27047D0
:100A50002DE9F0470D4699469246044600F12408D8
:100A60000168880604D5E06921F01001216000E0EA
:100A70000120A84201DD471B00E00027A1697A1987
:100A800002EB0900081AA0612078C00602D42046B3
:100A9000FFF7CAFC002608E0D4E901211AF8060095
:100AA0009047206A401C761C20624E45F4DB20787B
:100AB000C0060AD52046FFF7B7FC06E0D4E90121BD
:100AC00030209047206A401C2062381EA7F10107A1
:100AD000F4DC07E0D4E9012118F805009047206A0A
:100AE000401C2062281EA5F10105F3DC2046FFF71B
:100AF000B1FC2078000602D50220BDE8F087012075
:100B0000FBE711680268006A530501D508700AE026
:100B1000D30501D5088006E0130603D5C217C1E945
:100B2000000200E0086001207047000001694A1CD3
:100B300002610878704700B58FB0CDE9013100211E
:100B4000059105497944CDE9031011466846FFF740
:100B500041FD0FB000BD0000E5FFFFFF0A6802F88D
:100B6000010B0A60704710B5436913B1AFF3008001
:100B700001E0FFF780FC012010BD127800F1240194
:100B80000A7000224A700122EDE711684FF0FF322F
:100B9000E9E70000074B70B50D467B44FFF7CBFF3C
:100BA0000446284600F0FCFC10B14FF0FF3070BD49
:100BB000204670BDDFD500002DE9FF5F15468A464F
:100BC0000446DFF8AC80F8440027D8E900103E4620
:100BD000CDE9001010E03AF816106A4602A800F0BD
:100BE000E3FC411C07D02178890603D5E269391856
:100BF00091420DD80744761C2078800602D5E06922
:100C0000B84205DDAE42E6DB3AF816000028E2D134
:100C1000A069C01BA0612046FFF706FCD8E90010C0
:100C2000CDE90010002017E03AF818106A4602A833
:100C300000F0BAFCB0F1FF3F81460BD000250DF16A
:100C4000080B05E0D4E901211BF8050090476D1C55
:100C50004D45F7D308F10100B0428046E4DB206A3D
:100C6000384420622046FFF7F5FBBDE8FF9F0000F7
:100C7000DA0C01002DE9F0418046D21D22F0070276
:100C80000025D2E90002F52915A614D0011E72F143
:100C9000000106DA0023D0EB030063EB020211A689
:100CA00008E0D8F800108B0701D50FA602E049072D
:100CB00001D50EA601251146002408F1240704E001
:100CC00000F088F830323A55641C50EA0102F7D13E
:100CD0002B46324621464046BDE8F041FFF7B8BEFC
:100CE000000000002D0000002B000000200000008C
:100CF00030B4002100F1240408E002F00705D20816
:100D0000303542EA4372DB086554491C52EA030558
:100D1000F3D10468002310A2250707D5A40600D448
:100D200021B1C46901230DA2641EC46130BCFFF768
:100D30008FBE10B5044621461068FFF780FE0246BC
:100D40002046BDE810400023D2E7D21D22F0070163
:100D5000D1E90023CCE700000000000030000000D3
:100D600010B5203AC0F00B80B1E81850203AA0E846
:100D70001850B1E81850A0E81850BFF4F5AF5FEA7A
:100D8000027C24BFB1E81850A0E8185044BF18C92D
:100D900018C0BDE810405FEA827C24BF51F8043BD4
:100DA00040F8043B08BF7047D20728BF31F8023B28
:100DB00048BF11F8012B28BF20F8023B48BF00F8BC
:100DC000012B70470048704768B701200048704702
:100DD00068B7012030B5B0F10A024FEA900E71F108
:100DE00000034EEA817EB0EB0E0061EB91014FEA09
:100DF000101E4EEA017E10EB0E0041EB11114FEA7E
:100E0000102E4EEA016E10EB0E0041EB11214FEA5D
:100E1000104E4EEA014E10EB0E0041EB114140180E
:100E200041F100014FEAD00040EA41704FEAD101A0
:100E300010EB80054FEA810444EA907444EB01040E
:100E40006D1944EB0404521BA3414FF0000348BF4B
:100E50000A3200D530BD401C41F1000130BD704761
:100E60002DE9FF4F0C461E464FF0FF378BB0D2E9FD
:100E70000001DDF860800A908A46C1F30A5505B981
:100E80003D46002108464FF00000BAF1000F00F483
:100E9000400005DA00EB80004FF4400101EA500009
:100EA0004FEA9059B9F1010F00DDB9460A9850EAAE
:100EB0004A000ED044F61050A5F2FF3545432F14DA
:100EC000B8F1000F1ED07542291E1EDDC9F10002C7
:100ED0001CE0B8F1010F4FF0000001D0302103E019
:100EE000F24305E02154401CB042FBDB30460022B7
:100EF000002121540B99C1F80880C1E900200FB0EE
:100F0000BDE8F08FBD1B6D1CDEE74A4600DA694282
:100F100006A800F0CFFB06AB93E8070003AB83E81D
:100F2000070050460A9900F03CFC8DE80700A0F548
:100F300000501F3800900398002D09DD42F21F0178
:100F40004A46084403A90390684600F09BFE08E067
:100F5000A0F500504A461F3803A90390684600F0E8
:100F6000A5FE8DE807000004000C03D04FF0FF3011
:100F7000410800E01046B8F1000F03D000220092B3
:100F800015461EE0751E05D4FFF724FF303262556A
:100F90006D1EF9D5B3460122084302D000227F1C02
:100FA00004E02078302801D100227F1E002A099712
:100FB00086D01DE0112D07DAFFF70CFF30326255A5
:100FC0006D1C50EA0102F5D1084302D00098C8B167
:100FD0000EE00021681E05E0235C625C635422542D
:100FE000401E491C8142F7DBAB46A81B401E0990FE
:100FF000002004F80B000B98099AC0F80880C0E99B
:10100000002B7CE711264FF0000859E72DE9F04F3F
:1010100088460446D21D22F0070191B0D1E90001B3
:10102000CDE90A010AF0D1FF02460B98C00F01D0AA
:101030002D2007E02068810701D52B2002E0202128
:1010400001EAC000032A099001D0072A05DB034604
:101050004146204600F0EEFA0BE12078800601D5EB
:10106000E06900E00620B8F1650F814606D0B8F1CE
:10107000660F18D0B8F1670F70D131E00020B9F1D8
:10108000110F009001DB112301E009F101030AAA0D
:1010900001A90CA8FFF7E4FEDDE90C70002609F1B8
:1010A0000105834647E001204B4600904FF0004782
:1010B0000AAA01A90CA8FFF7D3FEDDE90DB00C992F
:1010C0005D46002610B909F101000D18B9EB0500C5
:1010D00003D4C0F1FF3609F10105A5EB09002BE0AF
:1010E000B9F1010F01DA4FF001090020B9F1110F38
:1010F0000090484601DD112300E003460AAA01A939
:101100000CA8FFF7ADFEDDE90C704D4600268346C6
:10111000207800070AD4AB4500DA5D4601A8012D0E
:1011200004DD411911F8011C302907D04F4502DABE
:1011300017F1040F04DA012082460FE06D1EEEE77E
:10114000002F02DCED1B3E4403E0781CA84200DDCA
:101150007D1CB81B00F1010A4FF000472078000702
:1011600003D4AA4501DB4FF0FF3A0021B7F1004F4D
:101170000DF143088DF8431024D002202B23002FBB
:1011800001DA7F422D230A21021EA0F1010000DCBA
:101190005FB197FBF1FC97FBF1F201FB1C7C17465A
:1011A0000CF1300C08F801CDEEE7A8F10100037056
:1011B0002188090501D5452100E06521A0F101083C
:1011C00000F8011C09980FA9A1EB0807FF1D00B149
:1011D0000120411901EBEA70A1693844081A401E48
:1011E000A0612078C00602D42046FFF71DF90998B7
:1011F00028B1D4E901219047206A401C2062207860
:10120000C00622D52046FFF70FF91EE0002E04DBB2
:10121000B34502DD01A8805D00E03020D4E9012162
:101220009047206A401C2062761CAAF101005FEA08
:10123000000A0AD1FFF774FBC0680168405CD4E97A
:1012400001219047206A401C2062281EA5F101055B
:10125000DCDC07E0D4E9012118F8010B9047206A93
:10126000401C2062381EA7F10107F3DC2046FFF77F
:10127000F1F8032011B043E62DE9F04F04460D4686
:10128000D21D22F0070089B0D0E9009748463946C0
:101290000AF09BFE0246F80F01D02D2307E02068DC
:1012A000810701D52B2302E0202101EAC0038DF83C
:1012B00020300BB1012000E00020032A824601D03B
:1012C000072A04DB2946204600F0B4F93FE12078E4
:1012D000800601D40D2500E0E569C7F30A560D2DFF
:1012E00049DA00214FEA175B08464FF00000002F53
:1012F00000F4400007DA00EB80004FF4400100EBFF
:10130000D07001EA60008115012901DD4FF0FF3145
:1013100000224FEA850CBCF1180F06D31346ACF13E
:1013200018004FF08052C24003E04FF4801323FABC
:101330000CF30CF10C0CBCF1200F04D3ACF1200C1D
:1013400009FA0CF001E007FA0CF000294FF0004810
:1013500001DD18B90FE00ED140450CD319EB02099D
:101360005F4121B9404502D19F4329EA0209BBEB05
:10137000175F00D0761C2088000502D57B48784492
:1013800002E07A487844193808AA302302F80A3073
:10139000037C0AF10101002E0AF1020A53546A4645
:1013A00002DC4FF0300101E04FF031014FF0010855
:1013B0008DF8001002D0A6F2FF3603E059EA47018B
:1013C00000D06B4E002D02DC2178090704D54FF0C8
:1013D00002082E218DF80110C44600210BE0C7F34E
:1013E00003433F01C35C491C6D1E02F80830052908
:1013F00008F1010801DA002DF1DC00210CE000EB1E
:101400001973491C1B786D1E082902F808304FEA31
:10141000091908F1010801DA002DF0DC21688B06BA
:1014200002D516E0A8F10108E04505DD02EB08034E
:1014300013F8013C302BF5D0B8F1000F09DD02EBB9
:10144000080313F8013C2E2B03D1090701D4A8F19E
:101450000108002D05DD3E2102F808106D1E08F17F
:101460000108407C002E02F8080008F1010804DAA7
:101470002D20764202F8080002E02B2002F8080036
:101480000A214FF47A70864208F101080BDB96FBC3
:10149000F0F3303302F8083096FBF0F308F101085E
:1014A00000FB136601E0642E0CDB642096FBF0F376
:1014B000303302F8083096FBF0F308F1010800FB26
:1014C000136601E00A2E06DB96FBF1F0303002F8DD
:1014D000080008F1010896FBF1F001FB10603030C4
:1014E00002F80800A16908F1010808EB050202EB07
:1014F0000A00081AA0612078C00602D42046FEF730
:1015000093FF216A08AE01EB0A00206204E0D4E9EF
:10151000012116F8010B9047BAF1010AF7D22078A1
:10152000C00602D52046FEF77FFF6E4609E016F89A
:10153000010B3E280FD0D4E901219047206A401CBE
:101540002062B8F10108F2D22046FEF783FF09B00D
:101550000320BDE8F08F206A2844206203E0D4E92C
:101560000121302090476D1EEBD3F8E73D050100C7
:1015700002FCFFFF10B5436913B1AFF3008001E037
:10158000FFF71AFB012010BD128800F124018284AC
:101590000022C2840122EDE711684FF0FF32E9E733
:1015A000007B00F08000704770B516460C4605467B
:1015B000FEF7DAFE036893F80101012806D0FF2C3C
:1015C0000FD8185D68B101202C7070BDD3F80701E9
:1015D0003246214603F2071303442846BDE8704013
:1015E00018474FF0FF3070BD7546FFF7EBFBAE4676
:1015F00005006946534620F00700854618B020B51F
:10160000FEF79EFEBDE820404FF000064FF00007B9
:101610004FF000084FF0000B21F00701AC46ACE89A
:10162000C009ACE8C009ACE8C009ACE8C0098D4607
:10163000704700002DE9F0411F460446032601686B
:10164000072A01F4006004DB08B116A505E016A521
:1016500003E008B115A500E015A521F010002060F9
:10166000A069C01EA0610FB1401EA0612046FEF718
:10167000DBFE4FB1D4E9012138469047206A401C77
:101680002062C01C206206E0206AFAE7D4E901214A
:1016900015F8010B9047761EF8D22046FEF7DAFEC9
:1016A000BDE8F0814E414E006E616E00494E46002D
:1016B000696E66002DE9F047814616468AB03348C8
:1016C00078440DC88DE80D0030487844801C03AC88
:1016D0000DC884E80D0041F69B300844372190FB8B
:1016E000F1F290FBF1F5A5F1800501FB12041B3C22
:1016F00002D56442012000E00020DFF890A080467F
:101700000027FA44AAF1BE0A0DE0E00709D03246EC
:10171000684607EB47010AEB810100F0C7FA8DE844
:10172000070064107F1C002CEFD1184F7F44AC3FA2
:1017300018E0E80714D007EB04100DF1180A90E840
:101740000E008AE80E00C068F04201D19819089096
:10175000324606A903A800F0A9FA03AB83E8070004
:101760006D10641C002DE4D132466946B8F1000FBB
:1017700003A802D000F086FA01E000F097FAC9E968
:101780000001C9F808200AB0BDE8F0878C0201000A
:1017900010B50446AFF300802046BDE81040FEF7C8
:1017A000B2BD5FEA400C08BF91F0000F4FEA8C23F6
:1017B0004FEAC12243EA51514FEA1C5018BF00F5CD
:1017C000F0404FEA300018BF41F000415FEA6C5C26
:1017D00000F02980BCF1FF3F08BF40F08040704717
:1017E000130C06BF12044FF0100C4FF0000C130E38
:1017F00004BF12020CF1080C130F04BF12010CF10C
:10180000040C930F04BF92000CF1020CD30F04BF21
:1018100052000CF1010C11464FF00002A0F11F0024
:10182000A0EB0C00704711F0004F08BF704731F07B
:1018300000413FF4D5AF0B0C06BF09044FF0100C6C
:101840004FF0000C0B0E04BF09020CF1080C0B0F3B
:1018500004BF09010CF1040C8B0F04BF89000CF1CB
:10186000020CCB0F04BF49000CF1010CCCF120039A
:10187000A0EB0C0022FA03F302FA0CF241EA030196
:1018800000F10100704720F07F4C80EA030023F054
:101890007F47ACEB070303F57C5300F0004003F1F6
:1018A000FF032DE980494FEA154B09B44FEA144371
:1018B00025EA0B4E24EA03480FF2042606EB132711
:1018C00049083E785FEA320203FB0667C7F5000766
:1018D00007FB06F64FEA54374FEAD64606F10206F2
:1018E00007FB066CCCF1005C4FEA1C472CEA074C66
:1018F00007FB06F40CFB06F504EB15464FEA9616BB
:1019000034BF00204FF000404FEAD13706FB07FC00
:101910004FEA1C4C0CFB0BF7D21B03FB0CF761EBE3
:1019200007010CFB0EF7B0EB074072EB17420CFB04
:1019300008F734BFA2EB0742B2EB074261EB174155
:101940004FEA0C444FEA910706FB07FC4FEA1C4C98
:101950000CFB0BF7B0EBC74072EB573203FB0CF7F5
:1019600034BFA2EBC742B2EBC74261EB57310CFB6D
:101970000EF7B0EBC70072EB57720CFB08F734BFE1
:10198000A2EBC702B2EBC70261EB5771039F4FEAAC
:10199000816141EA921104EBCC044FEAD1374FEA5E
:1019A000826206FB07FC42EA90124FEA80604FEA2F
:1019B0001C4C0CFB0BF7D21B03FB0CF761EB070174
:1019C0000CFB0EF7B0EB074072EB17420CFB08F76D
:1019D00034BFA2EB0742B2EB074261EB17414FEA7B
:1019E0008C554FEA910704EB9C2406FB07FC4FEA59
:1019F0001C4C0CFB0BF7B0EBC74072EB573203FBF0
:101A00000CF734BFA2EBC742B2EBC74261EB5731D0
:101A10000CFB0EF7B0EBC70072EB57720CFB08F72C
:101A200034BFA2EBC702B2EBC70261EB577115EBF3
:101A30004C254FEA816141EA92114FEA82624FEAF6
:101A4000D13742EA901206FB07FC44F100044FEA4A
:101A500080604FEA1C4C0CFB0BF7D21B03FB0CF70E
:101A600061EB07010CFB0EF7B0EB074072EB17427E
:101A70000CFB08F734BFA2EB0742B2EB074261EB65
:101A8000174115EB1C154FEA813141EA92414FEAAB
:101A9000823242EA90424FEA80304FEA0C7644F1BB
:101AA000000448EA03434EEA0B484FF0000EB2EB45
:101AB000080C71EB030724BF624639464EEB0E0E4D
:101AC0004FF0000B0018524149414BEB0B0BB2EBAE
:101AD000080C71EB03077BF1000B24BF624639460B
:101AE0004EEB0E0E4FF0000B0018524149414BEBEC
:101AF0000B0BB2EB080C71EB03077BF1000B24BF5F
:101B0000624639464EEB0E0E51EA020718BF46F008
:101B1000010616EB0E7655F1000254F1000103D5D3
:101B2000BDE88901BDE80088BDE88901BDE800483D
:101B3000B619524141EB0101A3F1010370478080C6
:101B40007F7E7D7C7B7A7978777676757473727117
:101B500071706F6E6E6D6C6C6B6A6A6968686766CF
:101B600066656464636362616160605F5F5E5E5D61
:101B70005D5C5C5B5B5A5A595958585757565655D5
:101B800055555454535352525251515050504F4F37
:101B90004F4E4E4D4D4D4C4C4C4B4B4B4A4A4A4987
:101BA00049494848484747474746464645454544CA
:101BB0004444444343434342424242414141002B57
:101BC00026D4770021D01CB54FEA370703B44FF075
:101BD00010004FF010014FF000000FBCBDE81040A6
:101BE0000BF1010BBBF1010F08BF5FEA170722BF22
:101BF00012F1010211F101014FF0004143F1000324
:101C000000F0004043EA00007047F9D35708DAE7D4
:101C100046EA064613F1400F4FEA16461FDD13F160
:101C2000200FDFBF16430A46002120335B42C8D095
:101C3000C3F1200746EA064602FA07F74FEA1646BE
:101C400046EA0706C3F1200722FA03F201FA07F772
:101C500021FA03F14FF0000342EA0702B1E746EA36
:101C6000020646EA06464FEA164646EA0106BCBFA9
:101C700046EA0646360C4FF000034FF000024FF0E4
:101C800000019EE72DE9C048934630B491E8380042
:101C900007C831EA400C48BF34EA430C03D5FFF7CC
:101CA000F2FDFFF78CFFF0BCBDE800882DE9C048CD
:101CB000934630B491E8380007C810F0804F08BF51
:101CC00013F0804F03D100F005F8FFF778FFF0BC68
:101CD000BDE8008820F07F4780EA030023F07F4CB6
:101CE00007EB0C03A3F57C5300F00040A3F1FE03C7
:101CF00092F0000F00F0B38095F0000F00F07780B5
:101D00002DE901494FEA11404FEA144621EA004803
:101D100000FB06FC24EA064708FB06F607FB08F86A
:101D200000FB07F718EB06484CEB164C4FEA124B3A
:101D300018EB07484FEA15464CEB174022EA0B4ECA
:101D40000BFB06FC25EA06470EFB06F607FB0EFE1C
:101D50000BFB07F71EEB064E4CEB164C4FF0000644
:101D60001EEB074E4CEB174B18EB0B0840F1000035
:101D700018EB0E0B58EB000840F100008F1A4FF0E3
:101D800000013CBFC943661B14BFB5EB040C002126
:101D90003CBFC943F61B4FEA17444EEA8E0E27EAB2
:101DA00004454FEA1C4704FB07622CEA074C05FB7D
:101DB00007F70CFB05F604FB0CFC16EB074642EBA1
:101DC000174216EB0C4642EB1C421BEB060658EB87
:101DD0000202414146EA9E0601D5BDE80189B619D5
:101DE000524141EB0101A3F10103BDE801894FEA32
:101DF00014454FEA114724EA054621EA074C05FB42
:101E000007F406FB07F70CFB06F105FB0CFC11EBD6
:101E1000074144EB17444FEA124711EB0C4144EBE6
:101E20001C4422EA074C05FB07F206FB07F70CFBF4
:101E300006F605FB0CFC16EB074642EB174216EBC9
:101E40000C4642EB1C456A1854F1000148BF70472C
:101E5000B619524141EB0101A3F10103704795F01E
:101E6000000F37D04FEA11424FEA144721EA0246E9
:101E700024EA074C02FB07F106FB07F70CFB06F40C
:101E800002FB0CFC14EB074441EB17414FEA1547EA
:101E900014EB0C4441EB1C4125EA074C02FB07F50F
:101EA00006FB07F70CFB06F602FB0CFC16EB0746DD
:101EB00045EB174516EB0C4645EB1C42121951F148
:101EC000000148BF7047B619524141EB0101A3F12F
:101ED000010370474FEA14454FEA114724EA0546CB
:101EE00021EA074C05FB07F106FB07F70CFB06F29E
:101EF0004FF0000605FB0CFC12EB074241EB1741CB
:101F000012EB0C4251EB1C4148BF7047921841EB59
:101F10000101A3F10103704710B500F01FFF10BDD0
:101F20002DE9F04107460C460026002509E036025F
:101F30003919491B491E88B200F008F80644681C8C
:101F4000C5B2A542F3DB3046BDE8F08170B504466A
:101F5000002600F0BBFF2546E11704EB11610912D2
:101F6000A02202EB4101C8B200F07CFF00F0FAFFB2
:101F7000E11704EB11610912A4EB0121C8B200F0D2
:101F800071FF00F0EFFF00F0A1FFA12000F06AFF59
:101F900000F0E8FF002000F02FFF064600F0BCFF35
:101FA000304670BD2DE9F04105460E461746002427
:101FB00009E0E20026FA02F2D1B22A1990B200F04A
:101FC00006F8601CC4B2BC42F3DBBDE8F08170B51A
:101FD00004460E4600F07AFF2546E11704EB116136
:101FE0000912A02202EB4101C8B200F03BFF00F051
:101FF000B9FFE11704EB11610912A4EB0121C8B28A
:1020000000F030FF00F0AEFF304600F02BFF00F094
:10201000A9FF00F081FF0A200AF054FB70BD00BF49
:10202000FEE7000010B531A0FEF7DCF94FF47A723C
:1020300033A134A00DF046F800284DD132A00DF0A8
:10204000E7F919200AF03EFB334934A0FEF7CAF93C
:102050003148C17932A0FEF7C5F92F48C079303830
:10206000C4B221462FA0FEF7BDF9022C06D0032CE6
:102070000DD0042C12D0052C23D118E02DA0FEF792
:10208000B1F90120334908703349086023E033A0D7
:10209000FEF7A8F900202F4908701CE033A0FEF7D6
:1020A000A1F901202B4908702B49086013E034A0E6
:1020B000FEF798F902202749087001202649086098
:1020C00009E034A0FEF78EF90320224908700120B0
:1020D0002149086000BF03E031A0FEF783F9042422
:1020E00034A0FEF77FF90AF021F810BDBFAACABCE0
:1020F000BCECB2E2CDF8C2E7D7B4CCAC0D0A00001C
:102100004F4B00004154000041542B43495053545D
:10211000415455530D0A0000340600202573000079
:1021200025630000CDF8C2E7D7B4CCACA3BA2564D0
:102130000D0A0000D2D1C1ACBDD3C2B7D3C9C6F716
:10214000A3ACCEB4C1ACBDD3B7FECEF1C6F70D0A79
:1021500000000000AC000020A4824242D2D1C1ACF9
:10216000BDD3B7FECEF1C6F70D0A0000D3EBB7FE24
:10217000CEF1C6F7B6CFBFAAC1ACBDD30D0A0000E1
:10218000D3EBC2B7D3C9C6F7B6CFBFAAC1ACBDD3D4
:102190000D0A0000CEB4D6AAB9CAD5CF0D0A0000E8
:1021A00045535038323636C4A3BFE9D2ECB3A30D41
:1021B0000A000000CDF8C2E7D7B4CCACBCECB2E268
:1021C000CDEAB1CF0D0A000010B5022207A10A48DE
:1021D0000BF0DCF948B9002107480BF061F806481C
:1021E0000BF0C4FB04480BF049F810BD5265636561
:1021F0006976652E747874000C04002070B5002593
:102200004FF4803404E0802006F07EFB00B103E050
:10221000201EA4F10104F6D100BF0CB9032070BD4B
:1022200040F2FF5006F046FB2846F8E770B504463A
:1022300005E01648056805F0450000B100E0F8E744
:1022400000BF042006F060FB20B1042006F032FB42
:10225000032070BD012006F057FB20B1012006F0DD
:1022600029FB0120F5E7094824380068A04201D085
:102270001020EEE740F2FF5006F01CFB0348203828
:10228000006808210840C0B2E3E70000342C014098
:1022900070B500264FF4803505E01148046804F05D
:1022A000450000B103E0281EA5F10105F5D100BFEE
:1022B00015B104F0040028B10326042006F0FAFA50
:1022C000304670BD012006F01FFB18B10126012029
:1022D00006F0F0FA40F2FF5006F0ECFA3046F0E774
:1022E000342C014010B505E00B48046804F04500AB
:1022F00000B100E0F8E700BF042006F005FB20B1C4
:10230000042006F0D7FA032010BD40F2FF5006F07B
:10231000D1FA0020F8E70000342C01402DE9F0410B
:1023200005460E464FF0000805E02048076807F014
:10233000450000B100E0F8E700BF042006F0E4FA31
:1023400028B1042006F0B6FA0320BDE8F081012090
:1023500006F0DAFA20B1012006F0ACFA0120F4E729
:10236000124824380068A84201D01020EDE740F25E
:10237000FF5006F09FFA0D482038046804F46040CE
:1023800018B9200C30804046DFE704F4005008B153
:102390001320DAE704F4804008B11020D5E704F4F4
:1023A000004008B10F20D0E74046CEE7342C014072
:1023B00070B500264FF4803505E00F48046804F03E
:1023C000450000B103E0281EA5F10105F5D100BFCD
:1023D00015B104F0040028B10326042006F06AFABF
:1023E000304670BD04F0400018B10026402006F0D1
:1023F00061FA3046F5E70000342C014010B50024A6
:102400001448006820F440501249086008460068EB
:10241000086004E0601CC4B201200AF06FF90E48A5
:10242000006808B1642CF5DB642C01DB012010BDD1
:10243000002404E0601CC4B201200AF05FF90648E1
:10244000006808B9642CF5DB642C01DB0120EEE7A1
:102450000020ECE700000240180240421CB50121B8
:10246000084605F049FC4020009001208DF804004A
:1024700000208DF8060002208DF8050001208DF85F
:1024800007006946034800F02DFB00F067F8FFF7EE
:10249000B5FF1CBD0000024010B5002404E0601C24
:1024A000C4B201200AF02AF90D48006808B1642C72
:1024B000F5DB002404E0601CC4B201200AF01EF920
:1024C0000748006808B9642CF5DB28200AF016F9E3
:1024D0000348006808B1012010BD0020FCE700009F
:1024E0001802404270B50024002506E06006040E84
:1024F000FFF7D2FF0443681CC5B2082DF6DB204667
:1025000070BD7CB505460E4600F028F8FFF776FF53
:10251000F8B9002405E0FFF7E5FF0DF80400601CA2
:10252000C4B2052CF7DB9DF800009DF801100844AB
:102530009DF8021008449DF8031008449DF804100B
:10254000884208D19DF8000030709DF80200287084
:1025500001E001207CBD0020FCE7000010B50C4824
:10256000006820F440500A4908600846006840F4BA
:102570008050086000200749086014200AF0A2F883
:1025800001200549C1F898021E200AF0B7F810BDD5
:1025900000000240980240420000404221B102681F
:1025A00042F00102026003E0026822F001020260D0
:1025B00070470000016821F0010101600021016005
:1025C00041608160C1600161212141614A498842C5
:1025D00004D13D21484A103A91608CE046491831B7
:1025E000884205D14FF47461434A103A916082E009
:1025F00041493031884205D14FF474113E4A103AB6
:10260000916078E03C494831884205D14FF07461CF
:10261000394A103A91606EE037496031884204D1FE
:102620003649354A103AD16065E0334978318842FD
:1026300004D13349304A103AD1605CE02E499031E0
:10264000884204D12F492C4A103AD16053E02A49DC
:10265000A831884205D14FF03D51274A103AD16048
:1026600049E02949884204D13D21274A083A1160AE
:1026700041E025491831884205D14FF47461224A5E
:10268000083A116037E020493031884205D14FF4D3
:1026900074111D4A083A11602DE01B4948318842E7
:1026A00005D14FF07461184A083A116023E01649C9
:1026B0006031884204D11149134A121F11601AE097
:1026C00011497831884204D10D490F4A121F116017
:1026D00011E00D499031884204D10A490A4A121F7B
:1026E000116008E00849A831884204D14FF03D51FB
:1026F000054A121F11607047106002403D00002023
:10270000400F002000003D201064024021B102680B
:1027100042F02002026003E0026822F02002026020
:102720007047014600200A6802F001020AB1012048
:1027300000E000207047000010B500220268134B33
:102740001A40CC680B6823434C6923438C692343AC
:10275000CC6923430C6A23434C6A23438C6A23438A
:102760004C6B23438C6B23431A430260426922F073
:102770000702D1E90B3423431A4342610B694360DA
:102780004B6883608B68C36010BD00003F801CF005
:10279000704700000149086070470000143C014088
:1027A000002123498279002A3AD00A461268036838
:1027B0009A430B461A600A1D126803689A430B1D60
:1027C0001A60027911440A6803681A430A60184AB9
:1027D0000832126803689A43154B08331A601A1DB1
:1027E000126803689A43124B0C331A604279102A1C
:1027F0000ED11A1F126803681A430D4B08331A6072
:102800001A1D126803681A43094B0C331A600DE055
:102810000749427911440A6803681A430A6005E0CF
:10282000027911440A6803689A430A6070470000FD
:10283000003C014051B18200A2F1C042126842F056
:1028400001038200A2F1C042136009E08200A2F1FC
:10285000C0421268034B1A408300A3F1C0431A60C0
:1028600070470000FEFF0F00D0E901121143C2685B
:102870001143026911434269114382691143C269DC
:102880001143026A1143426A1143826A1143C26AC8
:102890001143026B114302689200A2F1C042116021
:1028A000816808290BD101688900A1F1C04109683C
:1028B00041F0400201688900A1F1C0410A60416B0A
:1028C0000968426B526841EA0211426B926841EA20
:1028D0000221426B928941EA0241426B128A41EA2B
:1028E0000251426B127D41EA0261426B92691143CF
:1028F0000268521C9200A2F1C0421160C16AB1F597
:10290000804F1BD1816B0968826B526841EA0211CA
:10291000826B926841EA0221826B128A41EA02517B
:10292000826B127D41EA0261826B926911430268F7
:102930009200A2F1C042C2F8041107E06FF07042A9
:1029400001688900A1F1C041C1F80421704700006D
:102950002DE9FC4107460D4600260024002000908A
:10296000019008205B490860102048604020886082
:102970000020C8604FF480600861084606F010F837
:102980001020FFF753FC044614B12046BDE8FC813B
:102990005148008800044F490860372048604020B3
:1029A00088600020C8604FF480600861084605F028
:1029B000F7FF3720FFF73AFC04460CB12046E5E765
:1029C0004FF0FF304549086008204860302088609B
:1029D0000220C8600020086101204861084605F017
:1029E00079FF00203B490860332048604020886020
:1029F0000020C8604FF480600861084605F0D0FFF1
:102A00003320FFF713FC04460CB12046BEE70CE070
:102A10004FF4001005F078FF38B1314800684DF8E8
:102A20002600761C022E00D307E02D484C380068A3
:102A300040F22A6108400028EAD000BF082005F0D3
:102A400063FF20B1082005F035FF04209EE7022037
:102A500005F05AFF20B1022005F02CFF022095E777
:102A6000202005F051FF20B1202005F023FF062093
:102A70008CE74FF4007005F047FF28B14FF4007069
:102A800005F018FF072081E740F2FF5005F012FF24
:102A900000980006009901F47F4140EA0120009966
:102AA00001F47F0140EA1120009940EA116068605A
:102AB00001980006019901F47F4140EA0120019943
:102AC00001F47F0140EA1120019940EA1160286079
:102AD00020465BE758010020140000206C01002014
:102AE000802C0140F0B50A4600210023002400BFDD
:102AF0003DE0012505FA01F3156805EA03049C424F
:102B000034D105684F000326BE40B54305601579F2
:102B10004E00B5400668354305601579012D02D099
:102B20001579022D16D185684F000326BE40B543A6
:102B3000856055794E00B5408668354385604568A7
:102B400001268E40B5434560456896798E40B6B201
:102B500035434560C5684F000326BE40B543C56098
:102B6000D5794E00B540C6683543C560491C10296B
:102B7000BFD3F0BDF0B5002300244D07ED0E02FADF
:102B800005F3CE1000F1200555F826504E07F70E3C
:102B90000F26BE40B543CF1000F1200646F827505F
:102BA000CE1000F1200555F8265045EA0304CE105A
:102BB00000F1200545F82640F0BD418370470183B0
:102BC000704700002DE9F05F804689461446204694
:102BD000E21704EB5272D2102146E31704EB537351
:102BE000DB10A4EBC3030BB1012300E000231A4464
:102BF0006243D7B298F8006008F10100804605787A
:102C0000812E05DB402D03DBFF2D01D0FF2E0DD1E2
:102C10004FF0000A06E0002009F8010B0AF101005C
:102C200000F0FF0ABA45F6DBBDE8F09F7F2D03DA1E
:102C3000A5F14000C5B202E0A5F14100C5B2A6F180
:102C40008100C6B2BE2010FB065000FB07FB0C2C17
:102C500004D0102C16D0182C3CD127E001221FA143
:102C600021480AF093FC60B959461F480AF018FB46
:102C70001E4B3A4649461C480AF048FD1A480AF0DD
:102C8000FDFA27E001221AA117480AF07FFC60B97B
:102C9000594615480AF004FB144B3A464946124877
:102CA0000AF034FD10480AF0E9FA13E0012213A1FA
:102CB0000D480AF06BFC60B959460B480AF0F0FA6F
:102CC0000A4B3A46494608480AF020FD06480AF0F1
:102CD000D5FA00BF00BF00BFA6E7000047424B3156
:102CE000322E464F4E00000040B501202C0100203E
:102CF00047424B31362E464F4E00000047424B3282
:102D0000342E464F4E00000000BFFEE710B50020F5
:102D10000F4908600F48006820F440200D49086002
:102D20000846006840F48020086000200A49C1F885
:102D3000A402022009F0E2FC0120054908600220FB
:102D400009F0DCFC00200449C1F8A00210BD00001D
:102D5000A082404200040240008040421CB5012194
:102D6000022004F0C9FF4FF44070009001208DF85C
:102D7000040000208DF8060003208DF805000120D6
:102D80008DF8070069460548FFF7ACFE01200449AD
:102D900008600449C1F8A4021CBD00000004024000
:102DA000A08240420080404210B500200F490860D8
:102DB0000F48006820F440200D490860084600686C
:102DC00040F48020086001200A49C1F8A4020220D2
:102DD00009F094FC012005490860022009F08EFCEE
:102DE00000200449C1F8A00210BD0000A0824042AA
:102DF000000402400080404270B505460024164899
:102E0000006820F440201449086008460068086003
:102E1000002616E0002011490860022009F06EFC2F
:102E200001200F49C1F8A0026006040E0B487C384F
:102E3000006808B1601CC4B2012009F05FFC701C7E
:102E4000C6B2082EE6DB15B9FFF7AEFF01E0FFF7CB
:102E50005DFF204670BD000000040240A082404299
:102E60000080404270B504461548006820F44020B8
:102E7000134908600846006840F48020086000207C
:102E800010490860002517E0E0090E49091D086097
:102E90006006040E022009F031FC01200A49C1F845
:102EA000A002022009F02AFC002006490860022046
:102EB00009F024FC681CC5B2082DE5DB70BD0000DC
:102EC00000040240A08240420080404210B50F48FA
:102ED000006820F440200D4908600846006840F46E
:102EE0008020086001200A4908600A49C1F8A00250
:102EF000042009F003FC002005490860042009F0C3
:102F0000FDFB00200349C1F8A00210BD00040240EF
:102F1000A48240420080404210B50F48006820F46F
:102F200040200D4908600846006840F48020086091
:102F300000200A4908600A49C1F8A402042009F0E7
:102F4000DDFB0120054908600549C1F8A402042001
:102F500009F0D4FB10BD000000040240A0824042F2
:102F60000080404210B500241348006820F440203F
:102F70001149086008460068086001200F49086090
:102F800009F0BCFB01200E49C1F8A00209F0B6FB14
:102F900007E0601CC4B2FA2C03DDFFF7BDFF01207F
:102FA00010BD0648803800680028F2D10349091F87
:102FB000086000BFF4E7000000040240A482404221
:102FC000008040421CB50446002001900090224839
:102FD00000880004214908600D2048604020886076
:102FE0000020C8604FF480600861084605F0D8FCF6
:102FF0001B480068009002E01948006800900098A3
:1030000000F045000028F7D0012005F07DFC20B13C
:10301000012005F04FFC01201CBD042005F074FCCC
:1030200020B1042005F046FC0320F5E70C482438C5
:1030300000680D2801D01020EEE740F2FF5005F0A7
:1030400039FC07482038006801900198C0F34320FC
:1030500020700020E0E7000014000020580100204C
:10306000342C01401CB50121112004F045FE1C2028
:10307000009000208DF8040003208DF80500012049
:103080008DF8070069460648FFF72CFD01200090E7
:1030900002208DF8070069460248FFF723FD1CBD9A
:1030A000001002400000024070B504460026174898
:1030B0000588408845431548808846F604018842C3
:1030C00016D112488079012812D100200F49887149
:1030D0002A2048812B2088810021084604F05CF9D1
:1030E00001200A4988712B2048812A20888103E029
:1030F0000021084604F050F904F04CFB002602E0E1
:1031000003480480761CAE42FAD370BD3001002023
:103110008000006C10B50446002C66D16C498871A3
:10312000F02008804FF4A07048800846808849F25B
:10313000413188420BD06648808846F604018842B7
:1031400005D06348808845F2103188421AD12C207E
:103150005F4908812A2048812B2088810846808881
:1031600046F60401884205D05948808845F210315E
:10317000884206D14FF4A070554908804FF4F07092
:103180004880A1E05248808845F21051884210D111
:103190004FF430504E4908814FF4285048814FF485
:1031A0002C5088814FF4F07008804FF448704880AC
:1031B0008AE04748808841F6631188420DD12C206F
:1031C000434908812B2048812A2088814FF4F070E0
:1031D00008804FF44870488076E022203C490881FE
:1031E00020204881212088816EE0012038498871A3
:1031F0004FF4A0700880F02048800846808849F28B
:103200004131884205D03248808845F210318842E9
:1032100007D12C202E4908812A2048812B20888123
:103220003FE02B48808846F60401884207D12C20D5
:10323000274908812B2048812A20888131E02448B1
:10324000808845F21051884210D14FF43050204907
:1032500008814FF4285048814FF42C5088814FF456
:10326000487008804FF4F07048801AE01848808851
:1032700041F6631188420DD12C20154908812A207E
:1032800048812B2088814FF4487008804FF4F070FB
:10329000488006E022200E49088121204881202014
:1032A00088810B48808846F60401884205D008488A
:1032B000808845F21031884206D14FF4F0700449FD
:1032C00008804FF4A0704880052003F0EFFE10BD89
:1032D000300100202DE9FF4F84B081468A4600204E
:1032E000039002900698A0EB09050798A0EB0A0648
:1032F000CDF80490CDF800A0002D01DD012705E0F8
:103300000DB9002702E04FF0FF376D42002E02DDBD
:103310004FF0010806E016B94FF0000802E04FF048
:10332000FF387642B54201DD2C4600E034464FF0CE
:10333000000B21E0009A91B2019A90B200F022F8BD
:103340000398284403900298304402900398A042C6
:1033500005DD0398001B0390019838440190029802
:10336000A04205DD0298001B0290009840440090A6
:103370000BF101001FFA80FB601C8345DADD08B009
:10338000BDE8F08F30B504460D462946204604F0CE
:1033900003F804F0FFF9024800880249088030BDB4
:1033A0000A0000208000006CF0B504460D46164669
:1033B0001F462B46324629462046FFF78BFF3B46E9
:1033C000224629462046FFF785FF3B4632463946CE
:1033D0002046FFF77FFF3B46324629463046FFF73F
:1033E00079FFF0BD2DE9F04306460F4690460024D4
:1033F00045460320A0EB48093CE07A1B91B2321904
:1034000090B2FFF7BFFF3A1B91B2721990B2FFF76B
:10341000B9FF3A1991B2721990B2FFF7B3FF7A1956
:1034200091B2321990B2FFF7ADFF7A1991B2321B07
:1034300090B2FFF7A7FF3A1991B2721B90B2FFF753
:10344000A1FF7A1B91B2321B90B2FFF79BFF3A1B90
:1034500091B2721B90B2FFF795FF641CB9F1000F97
:1034600003DAA000801D814404E0601B80000A3064
:1034700081446D1EAC42C0DDBDE8F08370B50446EA
:103480000D4616465B48808849F24131884205D096
:103490005848808845F21031884214D155494889EE
:1034A00004F06CF9201204F05DF9E0B204F05AF96E
:1034B0005049888904F062F9281204F053F9E8B2FF
:1034C00004F050F98CE04B48808845F21051884256
:1034D00020D14849488904F051F9201204F042F9FA
:1034E00044494989491C88B204F048F9E0B204F023
:1034F00039F94049888904F041F9281204F032F979
:103500003C498989491C88B204F038F9E8B204F0D2
:1035100029F965E03748808841F66311884228D14F
:103520003448807920B933480088401E001B84B29B
:103530003049488904F022F9201204F013F9E0B26E
:1035400004F010F9201204F00DF9E0B204F00AF9C9
:103550002849888904F012F9281204F003F9E8B226
:1035600004F000F9281204F0FDF8E8B204F0FAF8CB
:1035700036E02048808846F6040188421DD11D4867
:103580008079012804D11B480088401E001B84B2AA
:103590001849488904F0F2F8201204F0E3F8E0B288
:1035A00004F0E0F81349888904F0E8F8281204F0E0
:1035B000D9F8E8B204F0D6F812E00E488079012874
:1035C00004D10C480088401E001B84B20949488978
:1035D000214604F0E9F807498889294604F0E4F80F
:1035E00004480089044908804FF0D840A0F8806062
:1035F00070BD0000300100207E00006C2DE9FC4F02
:1036000005460E4617469846DDF82C90002001909E
:103610002748808846F60401884229D124488079C9
:10362000012825D1AB46354621480088C01B401EE5
:1036300086B247461E480088A0EB0B00401E1FFACA
:1036400080F800201A4988712A2048812B2088811F
:1036500043463A4631462846CDF80090FFF7CEFF64
:103660000120134988712B2048812A2088811DE080
:10367000781B401C80B20190344615E02146284654
:1036800003F08AFE04F086F84FF0000A07E04FF0DE
:10369000D840A0F880900AF101001FFA80FA019842
:1036A0008245F4DB601C84B24445E7DDBDE8FC8F55
:1036B0003001002000B5A1B00020209001217A2027
:1036C00004F01AFB0121084604F026FB4FF40040E9
:1036D0001E9001208DF87C0000208DF87E000220D5
:1036E0008DF87D0001208DF87F001EA9FE48FFF7B0
:1036F000F9F94CF233701E9002208DF87C00002006
:103700008DF87E0003208DF87D0001208DF87F006C
:103710001EA9F648FFF7E6F94FF680701E900220CA
:103720008DF87C0000208DF87E0003208DF87D0050
:1037300001208DF87F001EA9ED48FFF7D3F94FF463
:1037400080501E9002208DF87C0000208DF87E00B5
:1037500003208DF87D0001208DF87F001EA9E5482B
:10376000FFF7C0F94FF480501E9002208DF87C00C6
:1037700000208DF87E0003208DF87D0001208DF85B
:103780007F001EA9DC48FFF7ADF90C220021D748C5
:10379000FFF7F0F90C220121D448FFF7EBF90C22D6
:1037A0000421D248FFF7E6F90C220521CF48FFF7A4
:1037B000E1F90C220821CD48FFF7DCF90C220921A0
:1037C000CA48FFF7D7F90C220A21C848FFF7D2F9F7
:1037D0000C220E21C548FFF7CDF90C220F21C3485A
:1037E000FFF7C8F90C220721C148FFF7C3F90C22E3
:1037F0000821BF48FFF7BEF90C220921BC48FFF79A
:10380000B9F90C220A21BA48FFF7B4F90C220B21AE
:10381000B748FFF7AFF90C221146B548FFF7AAF9F0
:103820000C220D21B248FFF7A5F90C220E21B04859
:10383000FFF7A0F90C220F21AD48FFF79BF90C22EE
:103840001146AC48FFF796F90C221146AA48FFF73B
:1038500091F90F200890002009903C200A90002048
:103860000B900C900D900E9009200190002002907A
:1038700008200390002004900590069007900620F1
:103880000F900020109011901020129000201390A3
:1038900015901490169017904FF4805018900020B7
:1038A00019904FF480401A9000201B9008A81C909B
:1038B00001A81D900FA8FEF7D7FF01210620FEF7F3
:1038C000B9FF322008F0FEFE0121002003F06CFF5A
:1038D000322008F0F7FE002003F0ACFB8749888017
:1038E00008468088FF280ADB084680884FF6FF716B
:1038F000884204D081488088B0F5134F7ED1D32010
:1039000003F03CFF03F08CFB7C49888003F088FBCC
:103910007A49888003F084FB78498880084680884B
:103920004FF6FF7101EA00207449888003F078FBAC
:10393000724989880843714988800846808849F21D
:10394000413188425AD0BF2003F018FF03F068FBD2
:103950006A49888003F064FB6849888003F060FB53
:103960006649888003F05CFB64498880084680884B
:103970004FF6FF7101EA00206049888003F050FB98
:103980005E49898808435D4988800846808846F6F4
:10399000040188427AD0D42003F0F0FE03F040FB0B
:1039A0005649888003F03CFB5449888003F038FB7B
:1039B00052498880084680884FF6FF7101EA00204E
:1039C0004E49888003F02CFB4C49898808434B49B9
:1039D00088800846808845F21031884256D04FF4DE
:1039E0005A4003F0CBFE03F01BFB444988804FF4A0
:1039F0005B4003F0C3FE03F013FB00E046E03F49E9
:103A00008880084680884FF6FF7101EA00203B4914
:103A100088804FF45C4003F0B1FE03F001FB3749AE
:103A2000898808433549888008468088B0F5004F6A
:103A300002D145F2105088803048808845F21051FC
:103A4000884223D0A12003F099FE03F0E9FA2B4924
:103A5000888003F0E5FA29498880084680884FF677
:103A6000FF7101EA00202549888003F0D9FA234933
:103A700089880843214988800846808845F2617119
:103A8000884203D141F663101C4988801B48808816
:103A900049F24131884211D01848808845F21031EE
:103AA00088420BD01548808845F21051884205D0D5
:103AB0001248808841F6631188422DD11048006871
:103AC00020F00F004FF02041C1F81C010846D0F84B
:103AD0001C0120F47060C1F81C010846D0F81C01DC
:103AE00040F003000EE0000000040240000C024021
:103AF0000010024000140240001802403001002073
:103B00001C0100A0C1F81C010846D0F81C0140F4BB
:103B10000070C1F81C0128E0FB48808846F60401CB
:103B2000884205D0F84880884CF2055188421CD163
:103B3000F648006820F00F004FF02041C1F81C014A
:103B40000846D0F81C0120F47060C1F81C0108463A
:103B5000D0F81C0140F00A00C1F81C010846D0F85A
:103B60001C0140F44060C1F81C01E748808849F21C
:103B7000413188427ED1CF2003F000FE002003F0C7
:103B8000F1FDC12003F0EEFD302003F0EBFDED2050
:103B900003F0F4FD642003F0E5FD032003F0E2FDF3
:103BA000122003F0DFFD812003F0DCFDE82003F0AC
:103BB000E5FD852003F0D6FD102003F0D3FD7A202B
:103BC00003F0D0FDCB2003F0D9FD392003F0CAFD6E
:103BD0002C2003F0C7FD002003F0C4FD342003F0C7
:103BE000C1FD022003F0BEFDF72003F0C7FD202039
:103BF00003F0B8FDEA2003F0C1FD002003F0B2FDA0
:103C0000002003F0AFFDC02003F0B8FD1B2003F03F
:103C1000A9FDC12003F0B2FD012003F0A3FDC520E2
:103C200003F0ACFD302003F09DFD302003F09AFD41
:103C3000C72003F0A3FDB72003F094FD362003F066
:103C40009DFD482003F08EFD3A2003F097FD55209E
:103C500003F088FDB12003F091FD002003F082FD08
:103C60001A2003F07FFDB62003F088FD0A2003F040
:103C700079FD00E097E0A22003F074FDF22003F04C
:103C80007DFD002003F06EFD262003F077FD01206E
:103C900003F068FDE02003F071FD0F2003F062FDEA
:103CA0002A2003F05FFD282003F05CFD082003F0CC
:103CB00059FD0E2003F056FD082003F053FD54205B
:103CC00003F050FDA92003F04DFD432003F04AFD11
:103CD0000A2003F047FD0F2003F044FD002003F00D
:103CE00041FD002003F03EFD002003F03BFD0020DD
:103CF00003F038FDE12003F041FD002003F032FD28
:103D0000152003F02FFD172003F02CFD072003F0F2
:103D100029FD112003F026FD062003F023FD2B20B2
:103D200003F020FD562003F01DFD3C2003F01AFD9A
:103D3000052003F017FD102003F014FD0F2003F001
:103D400011FD3F2003F00EFD3F2003F00BFD0F207F
:103D500003F008FD2B2003F011FD002003F002FD0D
:103D6000002003F0FFFC012003F0FCFC3F2003F0E7
:103D7000F9FC2A2003F002FD002003F0F3FC0020F0
:103D800003F0F0FC002003F0EDFCEF2003F0EAFC70
:103D9000112003F0F3FC782008F094FC292003F0B4
:103DA000EDFC03F021B95848808846F604018842AA
:103DB0007ED1112003F0E2FC142008F083FCD02017
:103DC00003F0DCFC072003F0CDFC422003F0CAFC2A
:103DD0001D2003F0C7FCD12003F0D0FC002003F02D
:103DE000C1FC1A2003F0BEFC092003F0BBFCD2206A
:103DF00003F0C4FC012003F0B5FC222003F0B2FC68
:103E0000C02003F0BBFC102003F0ACFC3B2003F00F
:103E1000A9FC002003F0A6FC022003F0A3FC112063
:103E200003F0A0FCC52003F0A9FC032003F09AFCDA
:103E3000C82003F0A3FC002003F094FC252003F02D
:103E400091FC212003F08EFC052003F08BFC002068
:103E500003F088FC0A2003F085FC652003F082FC57
:103E6000252003F07FFC772003F07CFC502003F03A
:103E700079FC0F2003F076FC002003F073FCF8209F
:103E800003F07CFC012003F06DFCFE2003F076FCC7
:103E9000002003F067FC022003F064FC202003F004
:103EA0006DFC362003F06AFC082003F05BFC00E0A8
:103EB0002EE03A2003F062FC552003F053FC2B2047
:103EC00003F05CFC002003F04DFC002003F04AFCF2
:103ED000012003F047FC3F2003F044FC2A2003F0BC
:103EE0004DFC002003F03EFC002003F03BFC0120D1
:103EF00003F038FCDF2003F035FC782008F0E2FB0B
:103F0000292003F03BFC4CE7300100201C0100A0FD
:103F1000FE48808845F21031884240F07C87ED20D1
:103F200003F02CFC012003F01DFCFE2003F01AFC22
:103F3000EE2003F023FCDE2003F014FC212003F02C
:103F400011FCF12003F01AFC012003F00BFCDF2030
:103F500003F014FC102003F005FCC42003F00EFC59
:103F60008F2003F0FFFBC62003F008FC002003F0C5
:103F7000F9FBE22003F0F6FBE22003F0F3FBE22082
:103F800003F0F0FBBF2003F0F9FBAA2003F0EAFBEB
:103F9000B02003F0F3FB0D2003F0E4FB002003F05E
:103FA000E1FB0D2003F0DEFB002003F0DBFB112022
:103FB00003F0D8FB002003F0D5FB192003F0D2FB5F
:103FC000002003F0CFFB212003F0CCFB002003F006
:103FD000C9FB2D2003F0C6FB002003F0C3FB3D20EE
:103FE00003F0C0FB002003F0BDFB5D2003F0BAFB33
:103FF000002003F0B7FB5D2003F0B4FB002003F0CA
:10400000B1FBB12003F0BAFB802003F0ABFB002032
:1040100003F0A8FB8B2003F0A5FB002003F0A2FB1C
:10402000962003F09FFB002003F09CFBB22003F0DE
:10403000A5FB002003F096FB002003F093FB022079
:1040400003F090FB002003F08DFB032003F08AFBBC
:10405000002003F087FBB32003F090FB002003F067
:1040600081FB002003F07EFB002003F07BFB00209F
:1040700003F078FB002003F075FB002003F072FBD7
:10408000002003F06FFB002003F06CFB002003F026
:1040900069FB002003F066FB002003F063FB0020B7
:1040A00003F060FB002003F05DFB002003F05AFBEF
:1040B000002003F057FB002003F054FB002003F026
:1040C00051FB002003F04EFB002003F04BFB0020CF
:1040D00003F048FB002003F045FB002003F042FB07
:1040E000002003F03FFB002003F03CFBB42003F072
:1040F00045FB8B2003F036FB002003F033FB9620BA
:1041000003F030FB002003F02DFBA12003F02AFB7D
:10411000002003F027FBB52003F030FB022003F062
:1041200021FB002003F01EFB032003F01BFB0020FB
:1041300003F018FB042003F015FB002003F012FB32
:10414000B62003F01BFB002003F00CFB002003F063
:1041500009FBB72003F012FB002003F003FB002053
:1041600003F000FB3F2003F0FDFA002003F0FAFA11
:104170005E2003F0F7FA002003F0F4FA642003F065
:10418000F1FA002003F0EEFA8C2003F0EBFA0020A5
:1041900003F0E8FAAC2003F0E5FA002003F0E2FABD
:1041A000DC2003F0DFFA002003F0DCFA702003F0DB
:1041B000D9FA002003F0D6FA902003F0D3FA0020B9
:1041C00003F0D0FAEB2003F0CDFA002003F0CAFA96
:1041D000DC2003F0C7FA002003F0C4FAB82003F093
:1041E000CDFA002003F0BEFA002003F0BBFA002055
:1041F00003F0B8FA002003F0B5FA002003F0B2FA99
:10420000002003F0AFFA002003F0ACFA002003F026
:10421000A9FABA2003F0B2FA242003F0A3FA00208E
:1042200003F0A0FA002003F09DFA002003F09AFAB0
:10423000C12003F0A3FA202003F094FA002003F039
:1042400091FA542003F08EFA002003F08BFAFF203D
:1042500003F088FA002003F085FAC22003F08EFAFA
:104260000A2003F07FFA002003F07CFA042003F018
:1042700079FA002003F076FAC32003F07FFA3C209D
:1042800003F070FA002003F06DFA3A2003F06AFAA6
:10429000002003F067FA392003F064FA002003F0ED
:1042A00061FA372003F05EFA002003F05BFA3C204D
:1042B00003F058FA002003F055FA362003F052FAC2
:1042C000002003F04FFA322003F04CFA002003F0F4
:1042D00049FA2F2003F046FA002003F043FA2C207D
:1042E00003F040FA002003F03DFA292003F03AFAE7
:1042F000002003F037FA262003F034FA002003F000
:1043000031FA242003F02EFA002001E030010020D1
:1043100003F028FA242003F025FA002003F022FA03
:10432000232003F01FFA002003F01CFA3C2003F0C6
:1043300019FA002003F016FA362003F013FA0020D1
:1043400003F010FA322003F00DFA002003F00AFA0D
:104350002F2003F007FA002003F004FA2C2003F0CA
:1043600001FA002003F0FEF9292003F0FBF90020F8
:1043700003F0F8F9262003F0F5F9002003F0F2F934
:10438000242003F0EFF9002003F0ECF9242003F0DF
:10439000E9F9002003F0E6F9232003F0E3F9002017
:1043A00003F0E0F9C42003F0E9F9622003F0DAF940
:1043B000002003F0D7F9052003F0D4F9002003F022
:1043C000D1F9842003F0CEF9002003F0CBF9F020DE
:1043D00003F0C8F9002003F0C5F9182003F0C2F972
:1043E000002003F0BFF9A42003F0BCF9002003F083
:1043F000B9F9182003F0B6F9002003F0B3F9502002
:1044000003F0B0F9002003F0ADF90C2003F0AAF995
:10441000002003F0A7F9172003F0A4F9002003F00F
:10442000A1F9952003F09EF9002003F09BF9F320F9
:1044300003F098F9002003F095F9E62003F092F9D3
:10444000002003F08FF9C52003F098F9322003F023
:1044500089F9002003F086F9442003F083F9002055
:1044600003F080F9652003F07DF9002003F07AF96C
:10447000762003F077F9002003F074F9882003F028
:1044800071F9002003F06EF9C62003F077F92020BF
:1044900003F068F9002003F065F9172003F062F9D2
:1044A000002003F05FF9012003F05CF9002003F025
:1044B00059F9C72003F062F9002003F053F90020F6
:1044C00003F050F9002003F04DF9002003F04AF901
:1044D000C82003F053F9002003F044F9002003F052
:1044E00041F9002003F03EF9002003F03BF9C92018
:1044F00003F044F9002003F035F9002003F032F90D
:10450000002003F02FF9002003F02CF9002003F025
:1045100029F9002003F026F9002003F023F90020F8
:1045200003F020F9002003F01DF9002003F01AF930
:10453000002003F017F9002003F014F9002003F025
:1045400011F9002003F00EF9002003F00BF9002010
:1045500003F008F9E02003F011F9162003F002F946
:10456000002003F0FFF81C2003F0FCF8002003F00B
:10457000F9F8212003F0F6F8002003F0F3F83620D4
:1045800003F0F0F8002003F0EDF8462003F0EAF81D
:10459000002003F0E7F8522003F0E4F8002003F0D5
:1045A000E1F8642003F0DEF8002003F0DBF87A2065
:1045B00003F0D8F8002003F0D5F88B2003F0D2F8F0
:1045C000002003F0CFF8992003F0CCF8002003F08E
:1045D000C9F8A82003F0C6F8002003F0C3F8B920FA
:1045E00003F0C0F8002003F0BDF8C42003F0BAF8CF
:1045F000002003F0B7F8CA2003F0B4F8002003F05D
:10460000B1F8D22003F0AEF8002003F0ABF8D920C7
:1046100003F0A8F8002003F0A5F8E02003F0A2F8CA
:10462000002003F09FF8F32003F09CF8002003F033
:1046300099F8E12003F0A2F8162003F093F8002087
:1046400003F090F81C2003F08DF8002003F08AF8A6
:10465000222003F087F8002003F084F8362003F0CE
:1046600081F8002003F07EF8452003F07BF800205D
:1046700003F078F8522003F075F8002003F072F888
:10468000642003F06FF8002003F06CF87A2003F048
:1046900069F8002003F066F88B2003F063F800202F
:1046A00003F060F8992003F05DF8002003F05AF859
:1046B000A82003F057F8002003F054F8B92003F0C5
:1046C00051F8002003F04EF8C42003F04BF800200E
:1046D00003F048F8CA2003F045F8002003F042F840
:1046E000D22003F03FF8002003F03CF8D82003F07C
:1046F00039F8002003F036F8E02003F033F800200A
:1047000003F030F8F32003F02DF8002003F02AF82E
:10471000E22003F033F8052003F024F8002003F032
:1047200021F80B2003F01EF8002003F01BF81B20DB
:1047300003F018F8002003F015F8342003F012F805
:10474000002003F00FF8442003F00CF8002003F0E1
:1047500009F84F2003F006F8002003F003F8612069
:1047600003F000F8002002F0FDFF792002F0FAFFCC
:10477000002002F0F7FF882002F0F4FF002002F092
:10478000F1FF972002F0EEFF002002F0EBFFA620E1
:1047900002F0E8FF002002F0E5FFB72002F0E2FFA0
:1047A000002002F0DFFFC22002F0DCFF002002F058
:1047B000D9FFC72002F0D6FF002002F0D3FFD1209E
:1047C00002F0D0FF002002F0CDFFD62002F0CAFF99
:1047D000002002F0C7FFDD2002F0C4FF002002F03D
:1047E000C1FFF32002F0BEFF002002F0BBFFE32078
:1047F00002F0C4FF052002F0B5FF002002F0B2FF76
:104800000A2002F0AFFF002002F0ACFF1C2002F0F3
:10481000A9FF002002F0A6FF332002F0A3FF002032
:1048200002F0A0FF442002F09DFF002002F09AFF5A
:10483000502002F097FF002002F094FF622002F067
:1048400091FF002002F08EFF782002F08BFF002005
:1048500002F088FF882002F085FF002002F082FF2E
:10486000972002F07FFF002002F07CFFA62002F0DC
:1048700079FF002002F076FFB72002F073FF0020DE
:1048800002F070FFC22002F06DFF002002F06AFF0C
:10489000C72002F067FF002002F064FFD12002F081
:1048A00061FF002002F05EFFD52002F05BFF0020D8
:1048B00002F058FFDD2002F055FF002002F052FF09
:1048C000F32002F04FFF002002F04CFFE42002F042
:1048D00055FF012002F046FF002002F043FF0120B7
:1048E00002F040FF002002F03DFF022002F03AFFFC
:1048F000002002F037FF2A2002F034FF002002F0EF
:1049000031FF3C2002F02EFF002002F02BFF4B2055
:1049100002F028FF002002F025FF5D2002F022FFB8
:10492000002002F01FFF742002F01CFF002002F0A4
:1049300019FF842002F016FF002002F013FF9320DD
:1049400002F010FF002002F00DFFA22002F00AFF8B
:10495000002002F007FFB32002F004FF002002F065
:1049600001FFBE2002F0FEFE002002F0FBFEC4208C
:1049700002F0F8FE002002F0F5FECD2002F0F2FE7B
:10498000002002F0EFFED32002F0ECFE002002F047
:10499000E9FEDD2002F0E6FE002002F0E3FEF32057
:1049A00002F0E0FE002002F0DDFEE52002F0E6FE6F
:1049B000002002F0D7FE002002F0D4FE002002F01A
:1049C000D1FE002002F0CEFE022002F0CBFE00203D
:1049D00002F0C8FE292002F0C5FE002002F0C2FE4F
:1049E0003C2002F0BFFE002002F0BCFE4B2002F093
:1049F000B9FE002002F0B6FE5D2002F0B3FE0020FA
:104A000002F0B0FE742002F0ADFE002002F0AAFE1B
:104A1000842002F0A7FE002002F0A4FE932002F002
:104A2000A1FE002002F09EFEA22002F09BFE0020CC
:104A300002F098FEB32002F095FE002002F092FEF4
:104A4000BE2002F08FFE002002F08CFEC42002F097
:104A500089FE002002F086FECD2002F083FE0020B9
:104A600002F080FED32002F07DFE002002F07AFEEC
:104A7000DC2002F077FE002002F074FEF32002F04A
:104A800071FE002002F06EFEE62002F077FE11209B
:104A900002F068FE002002F065FE342002F062FEA3
:104AA000002002F05FFE562002F05CFE002002F0C3
:104AB00059FE762002F056FE002002F053FE7720C9
:104AC00002F050FE002002F04DFE662002F04AFE89
:104AD000002002F047FE882002F044FE002002F091
:104AE00041FE992002F03EFE002002F03BFEBB207A
:104AF00002F038FE002002F035FE992002F032FE6E
:104B0000002002F02FFE662002F02CFE002002F0B2
:104B100029FE552002F026FE002002F023FE55203B
:104B200002F020FE002002F01DFE452002F01AFED9
:104B3000002002F017FE432002F014FE002002F0D5
:104B400011FE442002F00EFE002002F00BFEE720D2
:104B500002F014FE322002F005FE002002F002FEF8
:104B6000552002F0FFFD002002F0FCFD762002F04F
:104B7000F9FD002002F0F6FD662002F0F3FD0020B2
:104B800002F0F0FD672002F0EDFD002002F0EAFDEA
:104B9000672002F0E7FD002002F0E4FD872002F02C
:104BA000E1FD002002F0DEFD992002F0DBFD002097
:104BB00002F0D8FDBB2002F0D5FD002002F0D2FDAE
:104BC000992002F0CFFD002002F0CCFD772002F00A
:104BD000C9FD002002F0C6FD442002F0C3FD002004
:104BE00002F0C0FD562002F0BDFD002002F0BAFD2B
:104BF000232002F0B7FD002002F0B4FD332002F0C4
:104C0000B1FD002002F0AEFD452002F0ABFD00201A
:104C100002F0A8FDE82002F0B1FD002002F0A2FDA4
:104C2000002002F09FFD992002F09CFD002002F080
:104C300099FD872002F096FD002002F093FD882068
:104C400002F090FD002002F08DFD772002F08AFD39
:104C5000002002F087FD662002F084FD002002F0B3
:104C600081FD882002F07EFD002002F07BFDAA205D
:104C700002F078FD002002F075FDBB2002F072FD0D
:104C8000002002F06FFD992002F06CFD002002F080
:104C900069FD662002F066FD002002F063FD5520EC
:104CA00002F060FD002002F05DFD552002F05AFD8B
:104CB000002002F057FD442002F054FD002002F0D5
:104CC00051FD442002F04EFD002002F04BFD552026
:104CD00002F048FD002002F045FDE92002F04EFD03
:104CE000AA2002F03FFD002002F03CFD002002F06F
:104CF00039FD002002F036FD002002F03FFDAA2021
:104D000002F030FDCF2002F039FD002002F02AFD34
:104D1000002002F027FD002002F024FD002002F018
:104D200021FD002002F01EFD002002F01BFD0020EE
:104D300002F018FD002002F015FD002002F012FD27
:104D4000002002F00FFD002002F00CFD002002F018
:104D500009FD002002F006FD002002F003FD002006
:104D600002F000FD002002F0FDFC002002F0FAFC41
:104D7000F02002F003FD002002F0F4FC502002F0CD
:104D8000F1FC002002F0EEFC002002F0EBFC002021
:104D900002F0E8FCF32002F0F1FC002002F0E2FC5B
:104DA000F92002F0EBFC062002F0DCFC102002F0FF
:104DB000D9FC292002F0D6FC002002F0D3FC3A20D6
:104DC00002F0DCFC552002F0CDFC112002F0D6FCF4
:104DD000642007F077FC292002F0D0FC352002F097
:104DE000CDFC002002F0BEFC512002F0C7FCFF20E9
:104DF00002F0B8FC532002F0C1FC2C2002F0B2FCFF
:104E0000552002F0BBFC822002F0ACFC2C2002F00A
:104E1000B5FC02F0E9B8FE48808845F2105188429E
:104E20007ED155214FF4704002F0BEFCAA214FF212
:104E3000010002F0B9FC52214FF2020002F0B4FC72
:104E400008214FF2030002F0AFFC01214FF20400F1
:104E500002F0AAFC0D214FF4304002F0A5FC0D2118
:104E60004BF2010002F0A0FC0D214BF2020002F017
:104E70009BFC34214FF4364002F096FC34214BF277
:104E8000016002F091FC34214BF2026002F08CFCD4
:104E90000D214FF4314002F087FC0D214BF201103F
:104EA00002F082FC0D214BF2021002F07DFC342155
:104EB0004FF4374002F078FC34214BF2017002F0DD
:104EC00073FC34214BF2027002F06EFC00214FF4AF
:104ED000324002F069FC00214BF2012002F064FC38
:104EE00000214BF2022002F05FFC24214FF43840F5
:104EF00002F05AFC24214BF6010002F055FC24215B
:104F00004BF6020002F050FC01214FF43F4002F04A
:104F10004BFC0F214FF4334002F046FC0F2100E020
:104F2000FEE34BF2013002F03FFC0F214BF2023066
:104F300002F03AFC34214FF4394002F035FC3421C0
:104F40004BF6011002F030FC34214BF6021002F057
:104F50002BFC08214FF4354002F026FC08214BF2CF
:104F6000015002F021FC08214BF2025002F01CFC1F
:104F700003214FF4424002F017FC24214FF43A4041
:104F800002F012FC24214BF6012002F00DFC24213A
:104F90004BF6022002F008FC00214FF43C4002F0E6
:104FA00003FC78214BF6014002F0FEFB00214BF69A
:104FB000024002F0F9FB00214FF43D4002F0F4FB07
:104FC00078214BF6015002F0EFFB00214BF6025026
:104FD00002F0EAFB00214FF43E4002F0E5FB6421C1
:104FE0004BF6016002F0E0FB00214FF4514002F06B
:104FF000DBFB33214DF2011002F0D6FB00214DF214
:10500000021002F0D1FB34214DF2031002F0CCFB70
:1050100000214DF2041002F0C7FB3A214DF20510B9
:1050200002F0C2FB00214DF2061002F0BDFB4A2146
:105030004DF2071002F0B8FB00214DF2081002F00B
:10504000B3FB5C214DF2091002F0AEFB00214DF2E2
:105050000A1002F0A9FB81214DF20B1002F0A4FB13
:1050600000214DF20C1002F09FFBA6214DF20D1015
:1050700002F09AFB00214DF20E1002F095FBE521A3
:105080004DF20F1002F090FB01214DF2101002F0D2
:105090008BFB13214DF2111002F086FB01214DF222
:1050A000121002F081FB54214DF2131002F07CFB30
:1050B00001214DF2141002F077FB82214DF2151000
:1050C00002F072FB01214DF2161002F06DFBCA21B5
:1050D0004DF2171002F068FB02214DF2181002F099
:1050E00063FB00214DF2191002F05EFB02214DF22C
:1050F0001A1002F059FB01214DF21B1002F054FB73
:1051000002214DF21C1002F04FFB34214DF21D1014
:1051100002F04AFB02214DF21E1002F045FB67210E
:105120004DF21F1002F040FB02214DF2201002F060
:105130003BFB84214DF2211002F036FB02214DF29F
:10514000221002F031FBA4214DF2231002F02CFBBF
:1051500002214DF2241002F027FBB7214DF2251059
:1051600002F022FB02214DF2261002F01DFBCF219E
:105170004DF2271002F018FB02214DF2281002F028
:1051800013FBDE214DF2291002F00EFB02214DF23D
:105190002A1002F009FBF2214DF22B1002F004FB61
:1051A00002214DF22C1002F0FFFAFE214DF22D10DB
:1051B00002F0FAFA03214DF22E1002F0F5FA102156
:1051C0004DF22F1002F0F0FA03214DF2301002F0F0
:1051D000EBFA33214DF2311002F0E6FA03214DF2E1
:1051E000321002F0E1FA6D214DF2331002F0DCFAD8
:1051F00000214FF4524002F0D7FA33214DF2012042
:1052000002F0D2FA00214DF2022002F0CDFA01E0C4
:105210003001002034214DF2032002F0C5FA0021B4
:105220004DF2042002F0C0FA3A214DF2052002F0BE
:10523000BBFA00214DF2062002F0B6FA4A214DF2E7
:10524000072002F0B1FA00214DF2082002F0ACFA7A
:105250005C214DF2092002F0A7FA00214DF20A204C
:1052600002F0A2FA81214DF20B2002F09DFA0021FA
:105270004DF20C2002F098FAA6214DF20D2002F01A
:1052800093FA00214DF20E2002F08EFAE5214DF244
:105290000F2002F089FA01214DF2102002F084FA69
:1052A00013214DF2112002F07FFA01214DF212205C
:1052B00002F07AFA54214DF2132002F075FA01211E
:1052C0004DF2142002F070FA82214DF2152002F006
:1052D0006BFA01214DF2162002F066FACA214DF256
:1052E000172002F061FA02214DF2182002F05CFA58
:1052F00000214DF2192002F057FA02214DF21A2036
:1053000002F052FA01214DF21B2002F04DFA022167
:105310004DF21C2002F048FA34214DF21D2002F01B
:1053200043FA02214DF21E2002F03EFA67214DF2AF
:105330001F2002F039FA02214DF2202002F034FA47
:1053400084214DF2212002F02FFA02214DF2222079
:1053500002F02AFAA4214DF2232002F025FA0221BC
:105360004DF2242002F020FAB7214DF2252002F060
:105370001BFA02214DF2262002F016FACF214DF23F
:10538000272002F011FA02214DF2282002F00CFA37
:10539000DE214DF2292002F007FA02214DF22A20E7
:1053A00002F002FAF2214DF22B2002F0FDF9022167
:1053B0004DF22C2002F0F8F9FE214DF22D2002F0E2
:1053C000F3F903214DF22E2002F0EEF910214DF2F7
:1053D0002F2002F0E9F903214DF2302002F0E4F928
:1053E00033214DF2312002F0DFF903214DF232205A
:1053F00002F0DAF96D214DF2332002F0D5F90021E7
:105400004FF4534002F0D0F933214DF2013002F055
:10541000CBF900214DF2023002F0C6F934214DF2F1
:10542000033002F0C1F900214DF2043002F0BCF962
:105430003A214DF2053002F0B7F900214DF2063065
:1054400002F0B2F94A214DF2073002F0ADF9002125
:105450004DF2083002F0A8F95C214DF2093002F05B
:10546000A3F900214DF20A3002F09EF981214DF29C
:105470000B3002F099F900214DF20C3002F094F952
:10548000A6214DF20D3002F08FF900214DF20E30C1
:1054900002F08AF9E5214DF20F3002F085F9012181
:1054A0004DF2103002F080F913214DF2113002F06C
:1054B0007BF901214DF2123002F076F954214DF2C0
:1054C000133002F071F901214DF2143002F06CF941
:1054D00082214DF2153002F067F901214DF21630AC
:1054E00002F062F9CA214DF2173002F05DF9022193
:1054F0004DF2183002F058F900214DF2193002F047
:1055000053F902214DF21A3002F04EF901214DF209
:105510001B3002F049F902214DF21C3002F044F92F
:1055200034214DF21D3002F03FF902214DF21E30C0
:1055300002F03AF967214DF21F3002F035F90221ED
:105540004DF2203002F030F984214DF2213002F08A
:105550002BF902214DF2223002F026F9A4214DF25E
:10556000233002F021F902214DF2243002F01CF91F
:10557000B7214DF2253002F017F902214DF2263005
:1055800002F012F9CF214DF2273002F00DF902217D
:105590004DF2283002F008F9DE214DF2293002F0F8
:1055A00003F902214DF22A3002F0FEF8F2214DF209
:1055B0002B3002F0F9F802214DF22C3002F0F4F811
:1055C000FE214DF22D3002F0EFF803214DF22E3086
:1055D00002F0EAF810214DF22F3002F0E5F8032135
:1055E0004DF2303002F0E0F833214DF2313002F06C
:1055F000DBF803214DF2323002F0D6F86D214DF286
:10560000333002F0D1F800214FF4544002F0CCF8CE
:1056100033214DF2014002F0C7F800214DF2024063
:1056200002F0C2F834214DF2034002F0BDF800212F
:105630004DF2044002F0B8F83A214DF2054002F074
:10564000B3F800214DF2064002F0AEF84A214DF2C7
:10565000074002F0A9F800214DF2084002F0A4F83A
:105660005C214DF2094002F09FF800214DF20A4002
:1056700002F09AF881214DF20B4002F095F80021DA
:105680004DF20C4002F090F8A6214DF20D4002F0D0
:105690008BF800214DF20E4002F086F8E5214DF224
:1056A0000F4002F081F801214DF2104002F07CF829
:1056B00013214DF2114002F077F801214DF2124012
:1056C00002F072F854214DF2134002F06DF80121FE
:1056D0004DF2144002F068F882214DF2154002F0BC
:1056E00063F801214DF2164002F05EF8CA214DF236
:1056F000174002F059F802214DF2184002F054F818
:1057000000214DF2194002F04FF802214DF21A40EB
:1057100002F04AF801214DF21B4002F045F800E08A
:1057200004E302214DF21C4002F03EF834214DF218
:105730001D4002F039F802214DF21E4002F034F80B
:1057400067214DF21F4002F02FF802214DF2204058
:1057500002F02AF884214DF2214002F025F80221BE
:105760004DF2224002F020F8A4214DF2234002F035
:105770001BF802214DF2244002F016F8B7214DF239
:10578000254002F011F802214DF2264002F00CF8FB
:10579000CF214DF2274002F007F802214DF22840B8
:1057A00002F002F8DE214DF2294001F0FDFF022156
:1057B0004DF22A4001F0F8FFF2214DF22B4001F0AA
:1057C000F3FF02214DF22C4001F0EEFFFE214DF2DD
:1057D0002D4001F0E9FF03214DF22E4001F0E4FFDE
:1057E00010214DF22F4001F0DFFF03214DF2304038
:1057F00001F0DAFF33214DF2314001F0D5FF0321F2
:105800004DF2324001F0D0FF6D214DF2334001F0F6
:10581000CBFF00214FF4554001F0C6FF33214DF27C
:10582000015001F0C1FF00214DF2025001F0BCFF18
:1058300034214DF2035001F0B7FF00214DF2045026
:1058400001F0B2FF3A214DF2055001F0ADFF002109
:105850004DF2065001F0A8FF4A214DF2075001F029
:10586000A3FF00214DF2085001F09EFF5C214DF294
:10587000095001F099FF00214DF20A5001F094FF08
:1058800081214DF20B5001F08FFF00214DF20C50A1
:1058900001F08AFFA6214DF20D5001F085FF002195
:1058A0004DF20E5001F080FFE5214DF20F5001F056
:1058B0007BFF01214DF2105001F076FF13214DF2D4
:1058C000115001F071FF01214DF2125001F06CFFF7
:1058D00054214DF2135001F067FF01214DF2145095
:1058E00001F062FF82214DF2155001F05DFF0121B0
:1058F0004DF2165001F058FFCA214DF2175001F039
:1059000053FF02214DF2185001F04EFF00214DF2DD
:10591000195001F049FF02214DF21A5001F044FFE5
:1059200001214DF21B5001F03FFF02214DF21C50AE
:1059300001F03AFF34214DF21D5001F035FF0221F4
:105940004DF21E5001F030FF67214DF21F5001F063
:105950002BFF02214DF2205001F026FF84214DF251
:10596000215001F021FF02214DF2225001F01CFFD5
:10597000A4214DF2235001F017FF02214DF22450D3
:1059800001F012FFB7214DF2255001F00DFF022169
:105990004DF2265001F008FFCF214DF2275001F0C3
:1059A00003FF02214DF2285001F0FEFEDE214DF2F0
:1059B000295001F0F9FE02214DF22A5001F0F4FEC7
:1059C000F2214DF22B5001F0EFFE02214DF22C504E
:1059D00001F0EAFEFE214DF22D5001F0E5FE03211B
:1059E0004DF22E5001F0E0FE10214DF22F5001F04B
:1059F000DBFE03214DF2305001F0D6FE33214DF293
:105A0000315001F0D1FE03214DF2325001F0CCFEB5
:105A10006D214DF2335001F0C7FE00214FF4564086
:105A200001F0C2FE33214DF2016001F0BDFE002104
:105A30004DF2026001F0B8FE34214DF2036001F036
:105A4000B3FE00214DF2046001F0AEFE3A214DF2AA
:105A5000056001F0A9FE00214DF2066001F0A4FEF0
:105A60004A214DF2076001F09FFE00214DF20860CF
:105A700001F09AFE5C214DF2096001F095FE0021D3
:105A80004DF20A6001F090FE81214DF20B6001F0B1
:105A90008BFE00214DF20C6001F086FEA6214DF236
:105AA0000D6001F081FE00214DF20E6001F07CFEE0
:105AB000E5214DF20F6001F077FE01214DF21060FB
:105AC00001F072FE13214DF2116001F06DFE012113
:105AD0004DF2126001F068FE54214DF2136001F0A6
